{
  "contractName": "EngineerCertif",
  "abi": [
    {
      "constant": true,
      "inputs": [],
      "name": "listCertifiedEngineers",
      "outputs": [
        {
          "name": "name",
          "type": "string"
        },
        {
          "name": "nationality",
          "type": "string"
        },
        {
          "name": "certification",
          "type": "string"
        }
      ],
      "payable": false,
      "stateMutability": "view",
      "type": "function"
    },
    {
      "constant": false,
      "inputs": [
        {
          "name": "_addressToApprove",
          "type": "address"
        },
        {
          "name": "_name",
          "type": "string"
        },
        {
          "name": "_nationality",
          "type": "string"
        },
        {
          "name": "_certfication",
          "type": "string"
        },
        {
          "name": "_certifDuration",
          "type": "uint256"
        }
      ],
      "name": "approveEngineer",
      "outputs": [
        {
          "name": "",
          "type": "bool"
        }
      ],
      "payable": false,
      "stateMutability": "nonpayable",
      "type": "function"
    },
    {
      "constant": true,
      "inputs": [
        {
          "name": "_name",
          "type": "string"
        }
      ],
      "name": "getInfoEngineer",
      "outputs": [
        {
          "name": "name",
          "type": "string"
        },
        {
          "name": "nationality",
          "type": "string"
        },
        {
          "name": "certification",
          "type": "string"
        }
      ],
      "payable": false,
      "stateMutability": "view",
      "type": "function"
    },
    {
      "constant": false,
      "inputs": [
        {
          "name": "_addressToGrant",
          "type": "address"
        },
        {
          "name": "_name",
          "type": "string"
        },
        {
          "name": "_country",
          "type": "string"
        }
      ],
      "name": "createAuthority",
      "outputs": [
        {
          "name": "",
          "type": "bool"
        }
      ],
      "payable": false,
      "stateMutability": "nonpayable",
      "type": "function"
    },
    {
      "inputs": [],
      "payable": false,
      "stateMutability": "nonpayable",
      "type": "constructor"
    },
    {
      "payable": true,
      "stateMutability": "payable",
      "type": "fallback"
    }
  ],
  "bytecode": "0x6060604052341561000f57600080fd5b336000806101000a81548173ffffffffffffffffffffffffffffffffffffffff021916908373ffffffffffffffffffffffffffffffffffffffff160217905550610eb98061005e6000396000f300606060405260043610610062576000357c0100000000000000000000000000000000000000000000000000000000900463ffffffff1680630e77bcfe1461006457806317080ea2146101ca578063378f6c8d146102ed5780638da7a8621461049b575b005b341561006f57600080fd5b610077610572565b60405180806020018060200180602001848103845287818151815260200191508051906020019080838360005b838110156100bf5780820151818401526020810190506100a4565b50505050905090810190601f1680156100ec5780820380516001836020036101000a031916815260200191505b50848103835286818151815260200191508051906020019080838360005b8381101561012557808201518184015260208101905061010a565b50505050905090810190601f1680156101525780820380516001836020036101000a031916815260200191505b50848103825285818151815260200191508051906020019080838360005b8381101561018b578082015181840152602081019050610170565b50505050905090810190601f1680156101b85780820380516001836020036101000a031916815260200191505b50965050505050505060405180910390f35b34156101d557600080fd5b6102d3600480803573ffffffffffffffffffffffffffffffffffffffff1690602001909190803590602001908201803590602001908080601f0160208091040260200160405190810160405280939291908181526020018383808284378201915050505050509190803590602001908201803590602001908080601f0160208091040260200160405190810160405280939291908181526020018383808284378201915050505050509190803590602001908201803590602001908080601f0160208091040260200160405190810160405280939291908181526020018383808284378201915050505050509190803590602001909190505061058f565b604051808215151515815260200191505060405180910390f35b34156102f857600080fd5b610348600480803590602001908201803590602001908080601f01602080910402602001604051908101604052809392919081815260200183838082843782019150505050505091905050610768565b60405180806020018060200180602001848103845287818151815260200191508051906020019080838360005b83811015610390578082015181840152602081019050610375565b50505050905090810190601f1680156103bd5780820380516001836020036101000a031916815260200191505b50848103835286818151815260200191508051906020019080838360005b838110156103f65780820151818401526020810190506103db565b50505050905090810190601f1680156104235780820380516001836020036101000a031916815260200191505b50848103825285818151815260200191508051906020019080838360005b8381101561045c578082015181840152602081019050610441565b50505050905090810190601f1680156104895780820380516001836020036101000a031916815260200191505b50965050505050505060405180910390f35b34156104a657600080fd5b610558600480803573ffffffffffffffffffffffffffffffffffffffff1690602001909190803590602001908201803590602001908080601f0160208091040260200160405190810160405280939291908181526020018383808284378201915050505050509190803590602001908201803590602001908080601f01602080910402602001604051908101604052809392919081815260200183838082843782019150505050505091905050610b2f565b604051808215151515815260200191505060405180910390f35b61057a610da8565b610582610da8565b61058a610da8565b909192565b60006001151561059e33610d04565b15151415156105ac57600080fd5b84600460008873ffffffffffffffffffffffffffffffffffffffff1673ffffffffffffffffffffffffffffffffffffffff1681526020019081526020016000206000019080519060200190610602929190610dbc565b5083600460008873ffffffffffffffffffffffffffffffffffffffff1673ffffffffffffffffffffffffffffffffffffffff1681526020019081526020016000206001019080519060200190610659929190610dbc565b5082600460008873ffffffffffffffffffffffffffffffffffffffff1673ffffffffffffffffffffffffffffffffffffffff16815260200190815260200160002060020190805190602001906106b0929190610dbc565b5081600460008873ffffffffffffffffffffffffffffffffffffffff1673ffffffffffffffffffffffffffffffffffffffff168152602001908152602001600020600301819055506002805480600101828161070c9190610e3c565b9160005260206000209001600088909190916101000a81548173ffffffffffffffffffffffffffffffffffffffff021916908373ffffffffffffffffffffffffffffffffffffffff160217905550506001905095945050505050565b610770610da8565b610778610da8565b610780610da8565b60008090505b600280549050811015610b2757846040518082805190602001908083835b6020831015156107c957805182526020820191506020810190506020830392506107a4565b6001836020036101000a0380198251168184511680821785525050505050509050019150506040518091039020600019166004600060028481548110151561080d57fe5b906000526020600020900160009054906101000a900473ffffffffffffffffffffffffffffffffffffffff1673ffffffffffffffffffffffffffffffffffffffff1673ffffffffffffffffffffffffffffffffffffffff16815260200190815260200160002060000160405180828054600181600116156101000203166002900480156108d15780601f106108af5761010080835404028352918201916108d1565b820191906000526020600020905b8154815290600101906020018083116108bd575b50509150506040518091039020600019161415610b1a57849350600460006002838154811015156108fe57fe5b906000526020600020900160009054906101000a900473ffffffffffffffffffffffffffffffffffffffff1673ffffffffffffffffffffffffffffffffffffffff1673ffffffffffffffffffffffffffffffffffffffff1681526020019081526020016000206001018054600181600116156101000203166002900480601f0160208091040260200160405190810160405280929190818152602001828054600181600116156101000203166002900480156109fb5780601f106109d0576101008083540402835291602001916109fb565b820191906000526020600020905b8154815290600101906020018083116109de57829003601f168201915b5050505050925060046000600283815481101515610a1557fe5b906000526020600020900160009054906101000a900473ffffffffffffffffffffffffffffffffffffffff1673ffffffffffffffffffffffffffffffffffffffff1673ffffffffffffffffffffffffffffffffffffffff1681526020019081526020016000206002018054600181600116156101000203166002900480601f016020809104026020016040519081016040528092919081815260200182805460018160011615610100020316600290048015610b125780601f10610ae757610100808354040283529160200191610b12565b820191906000526020600020905b815481529060010190602001808311610af557829003601f168201915b505050505091505b8080600101915050610786565b509193909250565b60008060009054906101000a900473ffffffffffffffffffffffffffffffffffffffff1673ffffffffffffffffffffffffffffffffffffffff163373ffffffffffffffffffffffffffffffffffffffff16141515610b8c57600080fd5b82600360008673ffffffffffffffffffffffffffffffffffffffff1673ffffffffffffffffffffffffffffffffffffffff1681526020019081526020016000206000019080519060200190610be2929190610dbc565b5081600360008673ffffffffffffffffffffffffffffffffffffffff1673ffffffffffffffffffffffffffffffffffffffff1681526020019081526020016000206001019080519060200190610c39929190610dbc565b506001600360008673ffffffffffffffffffffffffffffffffffffffff1673ffffffffffffffffffffffffffffffffffffffff16815260200190815260200160002060020160006101000a81548160ff021916908360ff16021790555060018054806001018281610caa9190610e3c565b9160005260206000209001600086909190916101000a81548173ffffffffffffffffffffffffffffffffffffffff021916908373ffffffffffffffffffffffffffffffffffffffff16021790555050600190509392505050565b600080600090505b600180549050811015610d9d578273ffffffffffffffffffffffffffffffffffffffff16600182815481101515610d3f57fe5b906000526020600020900160009054906101000a900473ffffffffffffffffffffffffffffffffffffffff1673ffffffffffffffffffffffffffffffffffffffff161415610d905760019150610da2565b8080600101915050610d0c565b600091505b50919050565b602060405190810160405280600081525090565b828054600181600116156101000203166002900490600052602060002090601f016020900481019282601f10610dfd57805160ff1916838001178555610e2b565b82800160010185558215610e2b579182015b82811115610e2a578251825591602001919060010190610e0f565b5b509050610e389190610e68565b5090565b815481835581811511610e6357818360005260206000209182019101610e629190610e68565b5b505050565b610e8a91905b80821115610e86576000816000905550600101610e6e565b5090565b905600a165627a7a723058207e69577bb15827734beb00ed1c26415e72d88c6f2b042cb2d7391f517459a63c0029",
  "source": "pragma solidity ^0.4.11;\n\ncontract EngineerCertif {\n    address owner;\n    address[] authorities;\n    address[] engineers;\n    \n    struct Authority {\n        string name;\n        string country;\n        uint8 approvalLevel;\n    }\n    \n    struct Engineer {\n        string name;\n        string nationality;\n        string certification;\n        uint certifDuration;\n    }\n    \n    mapping(address => Authority) authorityInfo;\n    mapping(address => Engineer) engineerInfo;\n    \n    function EngineerCertif() public {\n        owner = msg.sender;\n    }\n    \n    function createAuthority(address _addressToGrant, string _name, string _country) public returns(bool) {\n        require(msg.sender == owner);\n        \n        authorityInfo[_addressToGrant].name = _name;\n        authorityInfo[_addressToGrant].country = _country;\n        authorityInfo[_addressToGrant].approvalLevel = 1;\n        \n        authorities.push(_addressToGrant);\n        \n        return true;\n    }\n    \n    function approveEngineer(address _addressToApprove, string _name, string _nationality, string _certfication, uint _certifDuration) public returns(bool) {\n        require(checkAuthorityExists(msg.sender) == true);\n        \n        engineerInfo[_addressToApprove].name = _name;\n        engineerInfo[_addressToApprove].nationality = _nationality;\n        engineerInfo[_addressToApprove].certification = _certfication;\n        engineerInfo[_addressToApprove].certifDuration = _certifDuration;\n        \n        engineers.push(_addressToApprove);\n        \n        return true;\n    }\n    \n    function listCertifiedEngineers() public view returns(string name, string nationality, string certification){\n        \n    }\n    \n    function getInfoEngineer(string _name) public view returns(string name, string nationality, string certification){\n        for(uint i = 0; i < engineers.length; i++){\n\t        if(keccak256(engineerInfo[engineers[i]].name) == keccak256(_name)){\n\t            name = _name;\n\t            nationality = engineerInfo[engineers[i]].nationality;\n\t            certification = engineerInfo[engineers[i]].certification;\n\t        }\n\t    }\n    }\n    \n    function checkAuthorityExists(address auth) internal constant returns(bool){\n\t    for(uint i = 0; i < authorities.length; i++){\n\t        if(authorities[i] == auth) return true;\n\t    }\n\t    return false;\n\t}\n    \n    function checkEngineerExists(address eng) internal constant returns(bool){\n\t    for(uint i = 0; i < engineers.length; i++){\n\t        if(engineers[i] == eng) return true;\n\t    }\n\t    return false;\n\t}\n    \n    function () payable public {}\n}",
  "sourcePath": "/Users/romain/Documents/engineer-certification/contracts/EngineerCertif.sol",
  "compiler": {
    "name": "solc",
    "version": "0.4.18+commit.9cf6e910.Emscripten.clang"
  },
  "schemaVersion": "1.0.1",
  "updatedAt": "2018-03-05T20:45:05.747Z"
}